:020000040800F2
:1000000000500020A9040008EF040008ED040008D7
:10001000ED040008ED040008ED04000800000000F5
:10002000000000000000000000000000EF040008D5
:10003000EF04000800000000EF040008C1020008FF
:10004000EF040008EF040008EF040008EF040008C4
:10005000EF040008EF040008EF040008EF040008B4
:10006000EF040008EF040008EF040008EF040008A4
:10007000EF040008EF040008EF040008EF04000894
:10008000EF040008EF040008EF040008EF04000884
:10009000EF040008EF040008EF040008EF04000874
:1000A000EF040008EF040008EF040008EF04000864
:1000B000EF040008EF040008EF040008EF04000854
:1000C000EF040008EF040008EF040008EF04000844
:1000D000EF040008EF040008EF040008EF04000834
:1000E000EF040008EF040008EF040008EF04000824
:1000F000EF040008EF040008EF040008EF04000814
:10010000EF040008EF040008EF040008EF04000803
:10011000EF040008EF040008EF040008EF040008F3
:10012000EF040008EF040008EF040008EF040008E3
:1001300000000000EF040008EF040008EF040008CE
:10014000EF040008EF040008EF040008EF040008C3
:10015000F8B5047804F07F04212C01D00020F8BD0C
:100160004478013C052C2FD8DFE804F0302E110B29
:1001700003382B4B09681878012308701846138040
:10018000F8BD274B1A780A2A31D00120F8BD24483F
:100190000F680578032D26D00026062D02D10725ED
:1001A0000570002600243C7008684670086884705A
:1001B0000E680120F4700E68357109684C710621D3
:1001C0001180184A1A60F8BD0020F8BD0AB11388E2
:1001D0008BB9134B06221A700120F8BD104B022276
:1001E0001A700120F8BD042505706426DAE70222A2
:1001F0001A700120F8BD8478C0780B4B44EA0020C7
:10020000A3F8080414881846A3F800441288096863
:1002100001F048FC024B03221A700120F8BD00BF18
:10022000000000202D02000820000020F8B5224E1A
:100230003378042B02D0072B19D0F8BD1F4D00F0E6
:1002400085FAB5F80834B3B9D5F8010000F1784261
:10025000A2F50052B2F5F03F28D22B78212B22D004
:10026000412B1CD000F07EFA05233370F8BDBDE8A9
:10027000F84000F017BBD5F80414B5F800249F1E11
:1002800001EB8727002AEDD000243819295B00F004
:1002900085FAB5F8003402349C42F6DBE2E700F060
:1002A00091FAD5F80100C5F80404DBE718460121EE
:1002B000BDE8F84000F004BE00000020200000204F
:1002C0004FF44060C4F201004FF4006100F030BA16
:1002D00041F21800C4F20200082138B500F054F9C8
:1002E0004FF44060C4F201004FF4805100F01DFA59
:1002F000D8B14FF40052C0F6000200231168C2F6D4
:10030000FE730B40B3F1005F0FD14EF60853CEF2EF
:1003100000034FF400511960136883F3088842F218
:100320000403C0F600031B68984742F22003C4F29E
:1003300002031B689B0740F08D8000F079F941F2C1
:100340001C00C4F202004FF4000100F01DF941F25C
:100350001800C4F20200042100F016F900214FF445
:1003600000600A46C4F201004FF4807300F0A4F963
:100370004FF44060022100224FF40063C4F20100F8
:1003800000F09AF9002000F073FA4BF6A030C0F2AA
:100390000D0000F065FA00F075FA00F07BFA4FF4FA
:1003A0004060C4F201000021012240F2044300F049
:1003B00083F94FF2E8714FF2EC73C1F6FF73C1F6A7
:1003C000FF714FF2F0720968C1F6FF721868126887
:1003D0002E4B401880181946002230FA02F404F01F
:1003E0000F0430340432CC710139202AF5D1284968
:1003F00013F8012B392A02D9073203F8012C8B425A
:10040000F6D12449244D254B01F11402002424483F
:1004100085F8144400F0F2FC4FF4806000F00CFD0D
:10042000204A7F21212000F0FBFD4FF40060C4F240
:1004300001004FF4807100F076F94FF40060C4F2CF
:100440000100022122464FF4807300F035F900F0DC
:10045000F9FCFCE700F07AF942F21003C4F202035F
:1004600000221A6000F0C8F94FF47840C1F6FF701E
:1004700045F6A52100F0DAF94FF60800C1F6FF7045
:100480004FF47F7100F0D2F957E700BF2C04002031
:10049000340400208C1B00082000002004000020F1
:1004A000541C0008510100080B4B83F308880B4AC9
:1004B0000B4B0C4903E052F8040B43F8040B8B423E
:1004C000F9D302E043F8042B01E0074900228B42F4
:1004D000F8D3FFF7FDBE00BF00500020041D000848
:1004E000000000202000002024090020FEE77047C3
:1004F00004281CD8DFE800F003080D1217000C4B8D
:100500001A689101FCD57047094B1A689203FCD513
:100510007047074B1A689007FCD57047054B1A685F
:100520009107FCD57047044B1A689207FCD57047B9
:1005300000100240201002402410024004281BD862
:10054000DFE800F003080D0F15000C4B1A6842F0AD
:1005500080720AE0094B1A6842F4803205E0074BCA
:1005600000E0074B1A6842F001021A607047054B21
:100570001A6842F001021A60704700BF0010024082
:10058000201002402410024003680B4303607047B0
:10059000034B1A6822F0030202431A60704700BF3F
:1005A00004100240034B1A6822F4701242EA80429F
:1005B0001A60704704100240034B1A6822F480321C
:1005C00042EA00421A60704704100240034B1A6866
:1005D00022F4003242EA40421A607047041002409E
:1005E000034B1A6822F4404242EA80321A60704794
:1005F00004100240034B1A6822F4605242EAC022FF
:100600001A60704704100240034B1A6822F4E0623B
:1006100042EA00221A60704704100240034B1A6835
:1006200022F0F00242EA00121A6070470410024001
:1006300008B50220FFF782FF0220FFF759FF0020D4
:10064000FFF7A6FF0120FFF779FF0120FFF750FF1A
:100650000120FFF79DFF0020FFF7E0FF0320FFF7D9
:10066000BFFF0420FFF7D0FF0020FFF7C3FF0220E9
:1006700000F062F80720FFF795FF0120FFF79CFFCD
:100680000020FFF7A3FF0020FFF758FF0020FFF72F
:100690002FFF0220FFF77CFF034A044B1A60044A35
:1006A000044B1A6008BD00BF00512502180000204D
:1006B00000A24A041C0000202DE9F04F0768002525
:1006C00046682C464FF00F0B43FA04FC1CF0010F58
:1006D00020D01FFA84F8B8F1070F05D9A5F1200C36
:1006E0001FFA8CFCB14601E0AC46B9460BFA0CFA95
:1006F00029EA0A090CF1020A02FA0AFA01FA0CFCC8
:100700004AEA0C0C4CEA0909B8F1070F98BF4F46AA
:1007100088BF4E4601340435102CADB2D4D10760E9
:100720004660BDE8F08F01617047806808407047FF
:10073000C3684B40C3607047034B1A6822F007023E
:1007400002431A60704700BF00200240034B044A76
:100750001A6002F188321A60704700BF042002401C
:1007600023016745024B1A6842F080021A60704705
:1007700010200240034B044A1A6002F188321A60CA
:10078000704700BF0820024023016745024B1A68EA
:10079000D207FCD4704700BF0C20024070B5084D52
:1007A00004460E46FFF7F2FF2B6843F001032B606F
:1007B0002680FFF7EBFF2B6823F001032B6070BD51
:1007C0001020024038B50A4C0546FFF7DFFF2368CA
:1007D00043F002032360074B1D60236843F040038E
:1007E0002360FFF7D3FF236823F00203236038BDA3
:1007F000102002401420024010B50B4CFFF7C6FF3A
:100800002368990501D4FFF7B5FF236843F020035F
:100810002360236843F040032360FFF7B7FF23689A
:1008200023F02003236010BD1020024070B50B4D53
:1008300004460E46FFF7AAFF2B68980501D4FFF780
:1008400099FF2B6843F010032B602680FFF79EFF73
:100850002B6823F010032B6070BD00BF10200240F6
:10086000024B20F07F401860704700BF14E000E0AA
:10087000012804D8024B1A6842EA800018607047C9
:1008800010E000E0024B1A6842F002021A60704762
:1008900010E000E0024B1A6842F001021A60704753
:1008A00010E000E0014A024B1A6070470400FA05AC
:1008B0000CED00E0024B40F080001860704700BF74
:1008C0004C5C0040F7B505460E4614464E490822DA
:1008D00068461F4601F0E6F825F07F0C05F07F051D
:1008E000AB0003F1804303F5B843196848F6807202
:1008F0000A402A431A60196848F68F120A4002A972
:1009000001EB460636F8081C5FFA8CFC0A431A60B5
:10091000BCF1000F00D15DBB3C4A11683C4A89B272
:1009200001EBC50101F10051968A01F540514900E2
:100930000E601FB10C2101FB05229764196848F66F
:10094000CF720A401A60196848F6BF720A40102038
:10095000012111F0200F18BF4A404900013889B227
:10096000F7D11A602A4AA6199682BCF1000F4AD123
:100970002648E9000268264E1FFA82FC254A8C446C
:10098000B68A624452003E2C1660224611D9006895
:1009900014F01F0F80B218BFA4F1200209181E48DE
:1009A0006FEA825208186FEA5242400092B2026027
:1009B0000CE0006814F0010F80B20844164918BF1B
:1009C000621C411892B2490092020A6027B1104A93
:1009D0000C2101FB0525EF6419684CF68F720A4063
:1009E0001A6019684BF68F720A401020012111F429
:1009F000405F18BF4A404900013889B2F7D11A60F8
:100A0000034BA4199C82FEBD4C1C0008505C0040A6
:100A10004004002004300020063000200A4B0B491F
:100A2000186848F6BF7202401A6018684BF68F7259
:100A3000024043F8042B8B42F2D1054B1A68D2795D
:100A4000203252009A827047045C0040205C0040D3
:100A50004004002030B598B92D4B10241A6848F690
:100A6000BF7313400122002914BF10252025154211
:100A700018BF53405200013C92B2F4D1244A136093
:100A800003061FD500F07F00800000F1804000F5D4
:100A9000B840026848F6BF731340102401220029B1
:100AA00014BF10252025154218BF53405200013CA9
:100AB00092B2F4D1036049BB026848F6CF73134089
:100AC000036030BD49B9820002F1804202F5B842AC
:100AD00014684CF68F7323401360800000F180404F
:100AE00000F5B84002684BF68F73134010240122C2
:100AF00000290CBF4FF440554FF48055154218BFE4
:100B000053405200013C92B2F2D1036030BD00BFAD
:100B1000005C004003060FD500F07F00800000F16C
:100B2000804000F5B840006800F03000A0F11001EE
:100B3000484240EB01007047800000F1804000F522
:100B4000B840006800F44050A0F58052504240EB9D
:100B50000200704700F07F00F0B5840004F180448B
:100B600004F5B844236803F03003302B32D01B4D1A
:100B7000C0002B68561C9BB2C31803F1005303F549
:100B800040535B001B88760803F1005303F5405384
:100B90005B0003EB860603E031F8027C23F8047B5C
:100BA0000231B342F8D12B689BB2C0180C4BC3186A
:100BB0005B001A60216848F6BF730B4010200121CA
:100BC00011F0300F18BF4B404900013889B2F7D1FE
:100BD000236000E000221046F0BD00BF505C0040E2
:100BE000023000200346800000F1804000F5B8404C
:100BF0002DE9F043046804F44054B4F5405F51D04B
:100C00002A4EDC0037682A4DBFB2E7197D196D0006
:100C10002D88AD05B2EB955F08DD3568244AADB28D
:100C20006519AA18520012689205920D1F4D02F024
:100C300001082D680E46ADB265191E4C2C196400D2
:100C40002788540807F1005707F540577F00BC4636
:100C5000254605E03CF8049B013D26F8029CADB218
:100C60000236002DF6D1B8F1000F03D017F824504A
:100C700001F81450046840F68F71214001600E495C
:100C8000CB5C83B901684BF68F730B4010240121B4
:100C900011F4405F18BF4B404900013C89B2F7D1C5
:100CA000036000E000221046BDE8F083505C004085
:100CB00006300020043000203804002038B52D4DC7
:100CC0002C68A4B2620508D52B4B40229A8200F012
:100CD000CDF84FF6FF332B6038BD23042AD504F03E
:100CE0000F004FEA800202F1804214F0100102F579
:100CF000B84205D01368C3F3C0230133DBB205E06B
:100D0000156848F60F732B4013600B46032202FB55
:100D10000033194A123352F823300BB1984709E0D7
:100D2000800000F1804000F5B840026840F68F7303
:100D300013400360200507D50E4B4FF2FF721A6077
:100D40000D4BDB6903B19847E10407D5094B4EF61B
:100D5000FF721A60084B1B6A03B19847A20507D5BA
:100D6000054B5B6A03B19847024B4FF6FF521A607E
:100D700038BD00BF445C00404004002008B54FF47B
:100D800000010748FFF700FC064A074900231360EB
:100D90000B6041F80C3C4FF41C43136008BD00BFCE
:100DA0001C100240405C0040505C0040030622D40E
:100DB000114B1954800000F1804000F5B8400268E2
:100DC0004BF68F73134059B11021012212F4005FCA
:100DD00018BF53405200013992B2F7D103607047F7
:100DE0001021012212F4405F18BF53405200013914
:100DF00092B2F7D1036070473804002010B5094C57
:100E000084E80E00084BC4F8AC00E3608023238222
:100E100003689847054B00202365054BE364054BA9
:100E2000A36410BD400400202405002051100008D8
:100E3000B51000083D110008014B1882704700BF33
:100E40004004002008B5034BD3F8AC305B6A9847E8
:100E500008BD00BF4004002010B5034CD4F8AC40DE
:100E6000A468A04710BD00BF4004002038B500248E
:100E7000084D2046214640222346AC74EC74FFF70F
:100E8000EBFFD5F8AC3020465B689847AB6903B1FF
:100E9000984738BD4004002008B5034BD3F8AC3068
:100EA000DB69984708BD00BF4004002008B5034B2C
:100EB000D3F8AC301B6A984708BD00BF400400203F
:100EC00008B5034BD3F8AC301B69984708BD00BF89
:100ED0004004002008B5034BD3F8AC309B69984719
:100EE00008BD00BF4004002038B50F4D0F4C2B68E3
:100EF0000020DA79238AE1689A420CD2FFF7CCFF0E
:100F0000022323702B68E268DB79D218E260228A20
:100F1000D31A238238BD1A46FFF7BEFF032323707E
:100F200000232382E36038BD40040020F004002049
:100F300038B5104C0020E279257A238A42EA05254B
:100F40000D4AED1A1268E168D279C9189542A8BF16
:100F50001546ADB22A46FFF7A9FFA84206D00020E9
:100F60000121FFF7ADFF4FF0FF3038BD238AC318D2
:100F7000238238BDF004002040040020F8B5134D52
:100F8000134F0024621D55F8326005EBC20396B181
:100F9000587979781A7900EA01039A4208D10D4804
:100FA00000F10B0100F10F0200F11303B04758B933
:100FB0000134042CE6D1074800F10B0100F10F02C7
:100FC000BDE8F84000F01CBBF8BD00BF40040020A5
:100FD000F0040020F10400200F4B10B5DB680F4C2B
:100FE000E360227AE37943EA02232382FFF7C6FF14
:100FF00060B1208A18B1BDE81040FFF775BF014607
:101000000246FFF749FF0423237010BD0121BDE80C
:101010001040FFF755BF00BF40040020F00400203F
:1010200070B50A4C00232646A56A35B10133083451
:10103000042BF9D14FF0FF3070BD053306EBC3042C
:101040002071617146F83320284670BD40040020AD
:1010500038B5164C0025611C082228466561FFF74B
:1010600025FF082810D1E379227A53EA022203D01F
:1010700094F90130002B03DABDE83840FFF7ACBF2C
:101080000B4B198A914205D228460121BDE8384010
:10109000FFF716BFD9681B68E1602582DB799342B0
:1010A00001D2052300E00623237038BDF0040020A0
:1010B0004004002010B51F4C2378062B14D0072BBA
:1010C00021D0052B2ED1FFF733FF002830DBE37949
:1010D000227A43EA0222238AD21A174B1B68DB7951
:1010E0009A4225DC06230CE0FFF722FF00281FDBD5
:1010F000FFF744FFB8B1002001460246FFF7CCFEDF
:101100000423237010BD002001460246FFF7CEFEE7
:101110000023237063690BB1601C9847054B0022C4
:101120005A6110BD00200121BDE81040FFF7C8BE84
:1011300010BD00BFF004002040040020144B10B587
:101140001A781C46032A07D0042A07D0022A19D18C
:10115000BDE81040FFF7C8BE072211E05B690BB184
:10116000601C984763780A4A43B99378052B05D1E8
:10117000084BD078D3F8AC305B689847044B00221A
:101180001A7010BD00200121BDE81040FFF798BE85
:10119000F0040020400400201388012B01D9012312
:1011A0001380034A0B68D27C01201A70704700BF7D
:1011B000400400208378C17853EA012302D11380D0
:1011C000012070470020704701200B68108000222A
:1011D0001A7070471388022B01D9022313800A6802
:1011E000002313700A680120537070471388022B84
:1011F00001D9022313800A68002313700A680120B2
:101200005370704738B513880C46022B01D902235E
:10121000138000792568FFF75DFE003018BF0120BC
:101220002870236800225A70012038BD08B50121BA
:101230000079FFF745FE012008BD08B500210079BF
:10124000FFF73EFE012008BD08B503788BB9827810
:10125000C17842EA01227F2A0DD8094B9A74D3F84B
:10126000AC30084A934208D180785B6898470120E7
:1012700008BD002008BD184608BD012008BD00BFFC
:1012800040040020D81C000838B50E4CC278837882
:10129000054643EA0223E27C9A4211D0E374D4F873
:1012A000AC30DB689847D4F8A8304BB10022A2627A
:1012B0002263A2632264AA78E87842EA0020984771
:1012C000012038BD400400202DE9F04F837890F8CC
:1012D0000390044643EA09294FEA1920022889B0FD
:1012E0000D46924612D0032800F00081012840F0FC
:1012F0003D81A04B1A680A601B68BAF800201B7871
:101300009A4238BF1346AAF8003030E1994B17884B
:10131000D9680D225FFA89F902FB09F929605C6836
:10132000039114F8095004EB0906AF4238BF3D465B
:1013300008462A46314600F0B5FB039B7F1B03EBB2
:1013400005080023BFB214F809900493CDF818A043
:10135000BFE004990C234B430593B27A737A43EAB6
:101360000223F27A43EA0243327B43EA0263059A9C
:101370009B18D3F804A0BAF1000F13D09AF80040DC
:101380004046A74238BF3C465146224600F08AFB01
:101390009AF800303F1B65199944A044BFB2ADB222
:1013A0001FFA89F94FF0000C7FE0152101FB0CF3C7
:1013B000D2F808B040461BF803A00BEB03045745D6
:1013C00038BFBA46524621460293CDF804C000F019
:1013D00069FB029BD0441BF803B0CAEB0707637C90
:1013E000AA44A57CA27B43EA0525E37CBFB245EA7B
:1013F0000345237D217C45EA0365637BAF42B8BF8B
:101400003D4643EA0223E27BADB243EA0243404653
:101410002A4643EA016100F045FB637CA27C1FFA87
:101420008AFA43EA02235B447F1BA844994455444B
:10143000BFB2ADB21FFA89F94FF0000B07962AE050
:10144000637A94F80AA0072243EA0A2AE37A40461C
:101450004AEA034A237B4AEA036A02FB0BF31AF8BF
:1014600003600AEB0301B74238BF3E46324602939F
:10147000CDF804C000F016FB029BBF1B1AF8033026
:10148000751999440BF1010BB044BFB2ADB21FFA0C
:1014900089F91FFA8BFB2379DDF804C05B45CFD8AF
:1014A0000CF10103079E1FFA83FCB27A737A059947
:1014B00043EA0223F27A43EA0243327B43EA0263BD
:1014C0005A185B589C45FFF670AF049A531C9BB2A8
:1014D0000493337904998B423FF63BAFDDF818A0B3
:1014E000039BA3F80290AAF800503BE0214BDE6872
:1014F0009B68002B38D0194600225FFA89F904E076
:1015000051F8040B002832D001324A45F8DD53F877
:10151000290000F00BFB0130032340003070737092
:101520002E60BAF8002033789A4238BF1346AAF8E2
:101530000030104B9968002308E051F82220D05C5D
:1015400006EB430290700020D0700133BAF80020FF
:101550005208013A9342A278EFDB1AB90923B3701B
:101560000423F370012002E0184600E0002009B0D7
:10157000BDE8F08F4004002010B54378092B05D852
:10158000044C54F823301BB1984710BD002010BD07
:10159000184610BDB01C000810B543780B2B05D8B9
:1015A000044C54F823301BB1984710BD002010BDE7
:1015B000184610BD801C000810B54378012B03D0DD
:1015C00011D3032B0DD105E08378C47853EA0424AA
:1015D0000BD004E08378C47853EA042407D00020B9
:1015E00010BD002010BD034B02E0034B00E0034B95
:1015F000984710BD051200083B1200082D12000884
:10160000037813F0600F0DD103F01F03012B05D0F9
:10161000022B05D0002B05D1FFF7AEBFFFF7BCBFF3
:10162000FFF7CABF002070471D4B02221A6053F813
:10163000082C42F0800243F8082C5A6A42F4102227
:101640005A62184A1368002B164BFBDA1A6842F0EC
:1016500001021A601A6812F00102FBD1124B1968DC
:1016600041F0804141F470511960104B196841F00C
:1016700003011960C3F800260D4A802313600D4A48
:1016800013800D4B1A6842F001021A600B4A1A616E
:101690000B4B0F221A60012243F80C2C704700BF3D
:1016A00014000050100000500C00005000080050C2
:1016B0002400005020050020080000501828048055
:1016C0001C080050034B1A6822F4FE6242EA001222
:1016D0001A60704700080050F0B510F07F0433D155
:1016E0003F2A404B01D91C6009E01F2A01D9012182
:1016F00004E00F2A01D9022100E0032119603A49D0
:1017000002F07F030B6051F8100C43F0005340F0DF
:10171000084041F8100C354943F400230B6034496C
:1017200092080B60334B196841F0084119601104AD
:10173000314B41F080011960304B1988521892B238
:101740001A802F4B1A80F0BD00F08000C0B248B361
:101750002A489608058804F1A05745EA064C7519F1
:1017600005804037600102F07F0500F1A040BF0016
:10177000C7F800C0A605C0F8105904F12070483021
:1017800046EA8141400141F01841056841F40041B9
:101790000A432A43026023B31A4A0C2101FB0424A2
:1017A000A364F0BD02F07F00104D40F4002045F826
:1017B0002400650105F1A045C5F8100B04F1207067
:1017C0005830400142EA8142056842F0144242F436
:1017D00000422A43026023B10A4A0C2101FB04247F
:1017E000E364F0BD00090050100900500805002016
:1017F000100B0050000B0050280000502005002066
:101800001A05002040040020024B1A88024B1A805F
:10181000704700BF1A0500202005002000F07F005F
:10182000430103F1A04310B5D3F8104914F4002F7D
:1018300019D142F40024C3F8104900F12073483351
:101840005B011C68013044F0044400031C6000F19B
:10185000A0408B1803E051F8044B40F8044B5C1A8D
:10186000002CF8DC00E00022104610BD3A4B2DE9B8
:10187000F0411C68A20409D54FF400521A60374B9E
:1018800080221A80BDE8F041FFF7F0BAE00631D5BA
:10189000334B1B6803F4F012B2F5802F02D0B2F57F
:1018A000402F57D12F4903F00F05C3F30A130B80C4
:1018B000B2F5402F14BF012202224FF47A7300BF09
:1018C000013BFCD1032303FB0522274B123253F8C3
:1018D00022300BB128469847224A01352D03118842
:1018E00005F1A045002301E0286804338B42FBDBAF
:1018F000002313801C4F1D4E00254FF00108336854
:10190000D90705D5BB6C0BB1E8B29847C6F8008083
:10191000013520360C37042DF1D1220507D5124BA5
:10192000DB6903B198470C4B4FF400621A60002C3E
:1019300007DA0D4B1B6A03B19847074B4FF0004283
:101940001A60230706D5084B5B6A03B19847024B20
:1019500008221A60BDE8F081140000502005002024
:101960002000005018050020400400200809005005
:101970001C4B37B504461888824234BF15460546CD
:10198000401B1880631C1B0303F1A043002004E0EC
:1019900053F8042B043841F8042B4219032AF7DCCE
:1019A0003AB1186802AB43F8040D0846194600F036
:1019B00079F80D4A630152F8242003F1A043C3F8DB
:1019C000102B04F12073094A58335B01125D19682A
:1019D000002A0CBF4FF004424FF008420A431A603D
:1019E00028463EBD18050020080500201C050020E3
:1019F00040B9114B1A6811B142F4001201E022F40F
:101A000000121A60030605D500F07F0000F1207077
:101A1000483002E000F1207058304001036811B1F5
:101A200043F4001305E023F400130360036843F05C
:101A300080530360704700BF00090050020609D5BB
:101A400000F07F0000F12070483040010068C0F3D2
:101A50004050704700F12070583040010068C0F3DA
:101A60004050704703060ED4074B195400F1207004
:101A700058304001036819B143F0006303607047B8
:101A800043F08063036070471C050020044B1A6814
:101A900010B142F0020201E022F002021A60704727
:101AA000040800500F2AF0B498BF034631D941EA28
:101AB00000039B0737D10C46034615462668103DA8
:101AC0001E6066685E60A6689E60E6681034DE6030
:101AD00010330F2DF2D8A2F1100424F00F0402F0FD
:101AE0000F021034032A00EB0403214411D90E1F06
:101AF0001D46144656F8047F043C032C45F8047B2D
:101B0000F8D8141F24F00304043402F00302091966
:101B10001B1932B1013911F8014F013A03F8014B99
:101B2000F9D1F0BC70470346F4E700BF20F0030191
:101B300010F00300C0F1000051F8043B00F1040C68
:101B40004FEACC0C6FF000021CBF22FA0CF21343D8
:101B50004FF0010C4CEA0C2C4CEA0C4CA3EB0C02A1
:101B600022EA030212EACC1204BF51F8043B04300B
:101B7000F4D013F0FF0F1FBF013013F47F4F01307B
:101B800013F47F0F18BF0130704700BF120100022D
:101B900000000040501D1760000101020301000019
:101BA00009020000010100C032B01B000800000063
:101BB0000100000000000000BC1B00080904000038
:101BC00000FE01020400000000D41B000809000010
:101BD00000000000092109FF0000041A01000000B4
:101BE00078000000426C61636B2053706865726519
:101BF00020546563686E6F6C6F67696573000000E1
:101C0000426C61636B204D616769632050726F6243
:101C100065202855706772616465290040496E74BB
:101C200065726E616C20466C6173682020202F30D5
:101C30007830383030303030302F382A3030314B37
:101C4000612C3132302A3030314B67000002000401
:101C5000000000067D0D0008B5080008C508000852
:101C60001D0A0008550A0008AD0D0008150B0008F4
:101C7000550B0008E50B0008BD0C00080000000033
:101C8000ED1100080000000000000000000000004E
:101C90000000000000000000000000000000000044
:101CA0000000000000000000C9110008B511000884
:101CB000D511000800000000000000000000000036
:101CC0000000000049120008C912000800000000CE
:101CD000991100088912000829160008C516000885
:101CE000D916000809180008F1190008651A00083B
:101CF0003D1A00081D180008711900086D18000829
:041D00008D1A000830
:101D040002000000E01B0008E41B0008001C00089F
:101D14002C0400201C1C000800127A0000127A0017
:04000005080004A942
:00000001FF
